{
  "_format": "hh-sol-artifact-1",
  "contractName": "SpaceKidsClub",
  "sourceName": "contracts/SpaceKidsClub.sol",
  "abi": [
    {
      "inputs": [],
      "stateMutability": "nonpayable",
      "type": "constructor"
    },
    {
      "inputs": [],
      "name": "ApprovalCallerNotOwnerNorApproved",
      "type": "error"
    },
    {
      "inputs": [],
      "name": "ApprovalQueryForNonexistentToken",
      "type": "error"
    },
    {
      "inputs": [],
      "name": "ApprovalToCurrentOwner",
      "type": "error"
    },
    {
      "inputs": [],
      "name": "ApproveToCaller",
      "type": "error"
    },
    {
      "inputs": [],
      "name": "BalanceQueryForZeroAddress",
      "type": "error"
    },
    {
      "inputs": [],
      "name": "MintToZeroAddress",
      "type": "error"
    },
    {
      "inputs": [],
      "name": "MintZeroQuantity",
      "type": "error"
    },
    {
      "inputs": [],
      "name": "OwnerQueryForNonexistentToken",
      "type": "error"
    },
    {
      "inputs": [],
      "name": "TransferCallerNotOwnerNorApproved",
      "type": "error"
    },
    {
      "inputs": [],
      "name": "TransferFromIncorrectOwner",
      "type": "error"
    },
    {
      "inputs": [],
      "name": "TransferToNonERC721ReceiverImplementer",
      "type": "error"
    },
    {
      "inputs": [],
      "name": "TransferToZeroAddress",
      "type": "error"
    },
    {
      "anonymous": false,
      "inputs": [
        {
          "indexed": true,
          "internalType": "address",
          "name": "owner",
          "type": "address"
        },
        {
          "indexed": true,
          "internalType": "address",
          "name": "approved",
          "type": "address"
        },
        {
          "indexed": true,
          "internalType": "uint256",
          "name": "tokenId",
          "type": "uint256"
        }
      ],
      "name": "Approval",
      "type": "event"
    },
    {
      "anonymous": false,
      "inputs": [
        {
          "indexed": true,
          "internalType": "address",
          "name": "owner",
          "type": "address"
        },
        {
          "indexed": true,
          "internalType": "address",
          "name": "operator",
          "type": "address"
        },
        {
          "indexed": false,
          "internalType": "bool",
          "name": "approved",
          "type": "bool"
        }
      ],
      "name": "ApprovalForAll",
      "type": "event"
    },
    {
      "anonymous": false,
      "inputs": [
        {
          "indexed": true,
          "internalType": "contract IERC20",
          "name": "token",
          "type": "address"
        },
        {
          "indexed": false,
          "internalType": "address",
          "name": "to",
          "type": "address"
        },
        {
          "indexed": false,
          "internalType": "uint256",
          "name": "amount",
          "type": "uint256"
        }
      ],
      "name": "ERC20PaymentReleased",
      "type": "event"
    },
    {
      "anonymous": false,
      "inputs": [
        {
          "indexed": true,
          "internalType": "address",
          "name": "_minter",
          "type": "address"
        },
        {
          "indexed": false,
          "internalType": "uint256",
          "name": "_amount",
          "type": "uint256"
        },
        {
          "indexed": false,
          "internalType": "uint256",
          "name": "_price",
          "type": "uint256"
        }
      ],
      "name": "Mint",
      "type": "event"
    },
    {
      "anonymous": false,
      "inputs": [
        {
          "indexed": true,
          "internalType": "address",
          "name": "previousOwner",
          "type": "address"
        },
        {
          "indexed": true,
          "internalType": "address",
          "name": "newOwner",
          "type": "address"
        }
      ],
      "name": "OwnershipTransferred",
      "type": "event"
    },
    {
      "anonymous": false,
      "inputs": [
        {
          "indexed": false,
          "internalType": "address",
          "name": "account",
          "type": "address"
        }
      ],
      "name": "Paused",
      "type": "event"
    },
    {
      "anonymous": false,
      "inputs": [
        {
          "indexed": false,
          "internalType": "address",
          "name": "account",
          "type": "address"
        },
        {
          "indexed": false,
          "internalType": "uint256",
          "name": "shares",
          "type": "uint256"
        }
      ],
      "name": "PayeeAdded",
      "type": "event"
    },
    {
      "anonymous": false,
      "inputs": [
        {
          "indexed": false,
          "internalType": "address",
          "name": "from",
          "type": "address"
        },
        {
          "indexed": false,
          "internalType": "uint256",
          "name": "amount",
          "type": "uint256"
        }
      ],
      "name": "PaymentReceived",
      "type": "event"
    },
    {
      "anonymous": false,
      "inputs": [
        {
          "indexed": false,
          "internalType": "address",
          "name": "to",
          "type": "address"
        },
        {
          "indexed": false,
          "internalType": "uint256",
          "name": "amount",
          "type": "uint256"
        }
      ],
      "name": "PaymentReleased",
      "type": "event"
    },
    {
      "anonymous": false,
      "inputs": [
        {
          "indexed": false,
          "internalType": "bool",
          "name": "_revealed",
          "type": "bool"
        }
      ],
      "name": "Reveal",
      "type": "event"
    },
    {
      "anonymous": false,
      "inputs": [
        {
          "indexed": false,
          "internalType": "enum SpaceKidsClub.Status",
          "name": "_previousStatus",
          "type": "uint8"
        },
        {
          "indexed": false,
          "internalType": "enum SpaceKidsClub.Status",
          "name": "_newStatus",
          "type": "uint8"
        }
      ],
      "name": "StatusChange",
      "type": "event"
    },
    {
      "anonymous": false,
      "inputs": [
        {
          "indexed": true,
          "internalType": "address",
          "name": "from",
          "type": "address"
        },
        {
          "indexed": true,
          "internalType": "address",
          "name": "to",
          "type": "address"
        },
        {
          "indexed": true,
          "internalType": "uint256",
          "name": "tokenId",
          "type": "uint256"
        }
      ],
      "name": "Transfer",
      "type": "event"
    },
    {
      "anonymous": false,
      "inputs": [
        {
          "indexed": false,
          "internalType": "address",
          "name": "account",
          "type": "address"
        }
      ],
      "name": "Unpaused",
      "type": "event"
    },
    {
      "inputs": [
        {
          "internalType": "address",
          "name": "to",
          "type": "address"
        },
        {
          "internalType": "uint256",
          "name": "tokenId",
          "type": "uint256"
        }
      ],
      "name": "approve",
      "outputs": [],
      "stateMutability": "nonpayable",
      "type": "function"
    },
    {
      "inputs": [
        {
          "internalType": "address",
          "name": "owner",
          "type": "address"
        }
      ],
      "name": "balanceOf",
      "outputs": [
        {
          "internalType": "uint256",
          "name": "",
          "type": "uint256"
        }
      ],
      "stateMutability": "view",
      "type": "function"
    },
    {
      "inputs": [],
      "name": "baseURI",
      "outputs": [
        {
          "internalType": "string",
          "name": "",
          "type": "string"
        }
      ],
      "stateMutability": "view",
      "type": "function"
    },
    {
      "inputs": [
        {
          "internalType": "uint256",
          "name": "tokenId",
          "type": "uint256"
        }
      ],
      "name": "getApproved",
      "outputs": [
        {
          "internalType": "address",
          "name": "",
          "type": "address"
        }
      ],
      "stateMutability": "view",
      "type": "function"
    },
    {
      "inputs": [
        {
          "internalType": "address",
          "name": "_account",
          "type": "address"
        },
        {
          "internalType": "uint256",
          "name": "_amount",
          "type": "uint256"
        }
      ],
      "name": "gift",
      "outputs": [],
      "stateMutability": "nonpayable",
      "type": "function"
    },
    {
      "inputs": [
        {
          "internalType": "address",
          "name": "owner",
          "type": "address"
        },
        {
          "internalType": "address",
          "name": "operator",
          "type": "address"
        }
      ],
      "name": "isApprovedForAll",
      "outputs": [
        {
          "internalType": "bool",
          "name": "",
          "type": "bool"
        }
      ],
      "stateMutability": "view",
      "type": "function"
    },
    {
      "inputs": [],
      "name": "maxSupply",
      "outputs": [
        {
          "internalType": "uint256",
          "name": "",
          "type": "uint256"
        }
      ],
      "stateMutability": "view",
      "type": "function"
    },
    {
      "inputs": [],
      "name": "name",
      "outputs": [
        {
          "internalType": "string",
          "name": "",
          "type": "string"
        }
      ],
      "stateMutability": "view",
      "type": "function"
    },
    {
      "inputs": [],
      "name": "owner",
      "outputs": [
        {
          "internalType": "address",
          "name": "",
          "type": "address"
        }
      ],
      "stateMutability": "view",
      "type": "function"
    },
    {
      "inputs": [
        {
          "internalType": "uint256",
          "name": "tokenId",
          "type": "uint256"
        }
      ],
      "name": "ownerOf",
      "outputs": [
        {
          "internalType": "address",
          "name": "",
          "type": "address"
        }
      ],
      "stateMutability": "view",
      "type": "function"
    },
    {
      "inputs": [],
      "name": "pause",
      "outputs": [],
      "stateMutability": "nonpayable",
      "type": "function"
    },
    {
      "inputs": [],
      "name": "paused",
      "outputs": [
        {
          "internalType": "bool",
          "name": "",
          "type": "bool"
        }
      ],
      "stateMutability": "view",
      "type": "function"
    },
    {
      "inputs": [
        {
          "internalType": "uint256",
          "name": "index",
          "type": "uint256"
        }
      ],
      "name": "payee",
      "outputs": [
        {
          "internalType": "address",
          "name": "",
          "type": "address"
        }
      ],
      "stateMutability": "view",
      "type": "function"
    },
    {
      "inputs": [
        {
          "internalType": "address payable",
          "name": "account",
          "type": "address"
        }
      ],
      "name": "release",
      "outputs": [],
      "stateMutability": "nonpayable",
      "type": "function"
    },
    {
      "inputs": [
        {
          "internalType": "contract IERC20",
          "name": "token",
          "type": "address"
        },
        {
          "internalType": "address",
          "name": "account",
          "type": "address"
        }
      ],
      "name": "release",
      "outputs": [],
      "stateMutability": "nonpayable",
      "type": "function"
    },
    {
      "inputs": [
        {
          "internalType": "contract IERC20",
          "name": "token",
          "type": "address"
        },
        {
          "internalType": "address",
          "name": "account",
          "type": "address"
        }
      ],
      "name": "released",
      "outputs": [
        {
          "internalType": "uint256",
          "name": "",
          "type": "uint256"
        }
      ],
      "stateMutability": "view",
      "type": "function"
    },
    {
      "inputs": [
        {
          "internalType": "address",
          "name": "account",
          "type": "address"
        }
      ],
      "name": "released",
      "outputs": [
        {
          "internalType": "uint256",
          "name": "",
          "type": "uint256"
        }
      ],
      "stateMutability": "view",
      "type": "function"
    },
    {
      "inputs": [],
      "name": "renounceOwnership",
      "outputs": [],
      "stateMutability": "nonpayable",
      "type": "function"
    },
    {
      "inputs": [],
      "name": "reveal",
      "outputs": [],
      "stateMutability": "nonpayable",
      "type": "function"
    },
    {
      "inputs": [],
      "name": "revealed",
      "outputs": [
        {
          "internalType": "bool",
          "name": "",
          "type": "bool"
        }
      ],
      "stateMutability": "view",
      "type": "function"
    },
    {
      "inputs": [
        {
          "internalType": "address",
          "name": "from",
          "type": "address"
        },
        {
          "internalType": "address",
          "name": "to",
          "type": "address"
        },
        {
          "internalType": "uint256",
          "name": "tokenId",
          "type": "uint256"
        }
      ],
      "name": "safeTransferFrom",
      "outputs": [],
      "stateMutability": "nonpayable",
      "type": "function"
    },
    {
      "inputs": [
        {
          "internalType": "address",
          "name": "from",
          "type": "address"
        },
        {
          "internalType": "address",
          "name": "to",
          "type": "address"
        },
        {
          "internalType": "uint256",
          "name": "tokenId",
          "type": "uint256"
        },
        {
          "internalType": "bytes",
          "name": "_data",
          "type": "bytes"
        }
      ],
      "name": "safeTransferFrom",
      "outputs": [],
      "stateMutability": "nonpayable",
      "type": "function"
    },
    {
      "inputs": [
        {
          "internalType": "uint256",
          "name": "_amount",
          "type": "uint256"
        }
      ],
      "name": "saleMint",
      "outputs": [],
      "stateMutability": "payable",
      "type": "function"
    },
    {
      "inputs": [],
      "name": "saleMintLimit",
      "outputs": [
        {
          "internalType": "uint256",
          "name": "",
          "type": "uint256"
        }
      ],
      "stateMutability": "view",
      "type": "function"
    },
    {
      "inputs": [],
      "name": "salePrice",
      "outputs": [
        {
          "internalType": "uint256",
          "name": "",
          "type": "uint256"
        }
      ],
      "stateMutability": "view",
      "type": "function"
    },
    {
      "inputs": [
        {
          "internalType": "address",
          "name": "operator",
          "type": "address"
        },
        {
          "internalType": "bool",
          "name": "approved",
          "type": "bool"
        }
      ],
      "name": "setApprovalForAll",
      "outputs": [],
      "stateMutability": "nonpayable",
      "type": "function"
    },
    {
      "inputs": [
        {
          "internalType": "string",
          "name": "_newBaseURI",
          "type": "string"
        }
      ],
      "name": "setBaseURI",
      "outputs": [],
      "stateMutability": "nonpayable",
      "type": "function"
    },
    {
      "inputs": [
        {
          "internalType": "uint256",
          "name": "_maxSupply",
          "type": "uint256"
        }
      ],
      "name": "setMaxSupply",
      "outputs": [],
      "stateMutability": "nonpayable",
      "type": "function"
    },
    {
      "inputs": [
        {
          "internalType": "uint256",
          "name": "_saleMintLimit",
          "type": "uint256"
        }
      ],
      "name": "setMintLimit",
      "outputs": [],
      "stateMutability": "nonpayable",
      "type": "function"
    },
    {
      "inputs": [
        {
          "internalType": "uint256",
          "name": "_priceSale",
          "type": "uint256"
        }
      ],
      "name": "setPriceSale",
      "outputs": [],
      "stateMutability": "nonpayable",
      "type": "function"
    },
    {
      "inputs": [
        {
          "internalType": "uint256",
          "name": "_whitelistPrice",
          "type": "uint256"
        }
      ],
      "name": "setPriceWhitelist",
      "outputs": [],
      "stateMutability": "nonpayable",
      "type": "function"
    },
    {
      "inputs": [
        {
          "internalType": "string",
          "name": "_unrevealedURI",
          "type": "string"
        }
      ],
      "name": "setUnrevealedURI",
      "outputs": [],
      "stateMutability": "nonpayable",
      "type": "function"
    },
    {
      "inputs": [
        {
          "internalType": "uint256",
          "name": "_whitelistMintLimit",
          "type": "uint256"
        }
      ],
      "name": "setWhitelistMintLimit",
      "outputs": [],
      "stateMutability": "nonpayable",
      "type": "function"
    },
    {
      "inputs": [
        {
          "internalType": "uint256",
          "name": "_whitelistSupply",
          "type": "uint256"
        }
      ],
      "name": "setWhitelistSupply",
      "outputs": [],
      "stateMutability": "nonpayable",
      "type": "function"
    },
    {
      "inputs": [],
      "name": "setupSale",
      "outputs": [],
      "stateMutability": "nonpayable",
      "type": "function"
    },
    {
      "inputs": [],
      "name": "setupWhitelistSale",
      "outputs": [],
      "stateMutability": "nonpayable",
      "type": "function"
    },
    {
      "inputs": [
        {
          "internalType": "address",
          "name": "account",
          "type": "address"
        }
      ],
      "name": "shares",
      "outputs": [
        {
          "internalType": "uint256",
          "name": "",
          "type": "uint256"
        }
      ],
      "stateMutability": "view",
      "type": "function"
    },
    {
      "inputs": [],
      "name": "status",
      "outputs": [
        {
          "internalType": "enum SpaceKidsClub.Status",
          "name": "",
          "type": "uint8"
        }
      ],
      "stateMutability": "view",
      "type": "function"
    },
    {
      "inputs": [
        {
          "internalType": "bytes4",
          "name": "interfaceId",
          "type": "bytes4"
        }
      ],
      "name": "supportsInterface",
      "outputs": [
        {
          "internalType": "bool",
          "name": "",
          "type": "bool"
        }
      ],
      "stateMutability": "view",
      "type": "function"
    },
    {
      "inputs": [],
      "name": "symbol",
      "outputs": [
        {
          "internalType": "string",
          "name": "",
          "type": "string"
        }
      ],
      "stateMutability": "view",
      "type": "function"
    },
    {
      "inputs": [
        {
          "internalType": "uint256",
          "name": "_nftId",
          "type": "uint256"
        }
      ],
      "name": "tokenURI",
      "outputs": [
        {
          "internalType": "string",
          "name": "",
          "type": "string"
        }
      ],
      "stateMutability": "view",
      "type": "function"
    },
    {
      "inputs": [
        {
          "internalType": "contract IERC20",
          "name": "token",
          "type": "address"
        }
      ],
      "name": "totalReleased",
      "outputs": [
        {
          "internalType": "uint256",
          "name": "",
          "type": "uint256"
        }
      ],
      "stateMutability": "view",
      "type": "function"
    },
    {
      "inputs": [],
      "name": "totalReleased",
      "outputs": [
        {
          "internalType": "uint256",
          "name": "",
          "type": "uint256"
        }
      ],
      "stateMutability": "view",
      "type": "function"
    },
    {
      "inputs": [],
      "name": "totalShares",
      "outputs": [
        {
          "internalType": "uint256",
          "name": "",
          "type": "uint256"
        }
      ],
      "stateMutability": "view",
      "type": "function"
    },
    {
      "inputs": [],
      "name": "totalSupply",
      "outputs": [
        {
          "internalType": "uint256",
          "name": "",
          "type": "uint256"
        }
      ],
      "stateMutability": "view",
      "type": "function"
    },
    {
      "inputs": [
        {
          "internalType": "address",
          "name": "from",
          "type": "address"
        },
        {
          "internalType": "address",
          "name": "to",
          "type": "address"
        },
        {
          "internalType": "uint256",
          "name": "tokenId",
          "type": "uint256"
        }
      ],
      "name": "transferFrom",
      "outputs": [],
      "stateMutability": "nonpayable",
      "type": "function"
    },
    {
      "inputs": [
        {
          "internalType": "address",
          "name": "newOwner",
          "type": "address"
        }
      ],
      "name": "transferOwnership",
      "outputs": [],
      "stateMutability": "nonpayable",
      "type": "function"
    },
    {
      "inputs": [],
      "name": "unpause",
      "outputs": [],
      "stateMutability": "nonpayable",
      "type": "function"
    },
    {
      "inputs": [],
      "name": "unreveal",
      "outputs": [],
      "stateMutability": "nonpayable",
      "type": "function"
    },
    {
      "inputs": [],
      "name": "unrevealedURI",
      "outputs": [
        {
          "internalType": "string",
          "name": "",
          "type": "string"
        }
      ],
      "stateMutability": "view",
      "type": "function"
    },
    {
      "inputs": [
        {
          "internalType": "uint256",
          "name": "_amount",
          "type": "uint256"
        }
      ],
      "name": "whitelistMint",
      "outputs": [],
      "stateMutability": "payable",
      "type": "function"
    },
    {
      "inputs": [],
      "name": "whitelistMintLimit",
      "outputs": [
        {
          "internalType": "uint256",
          "name": "",
          "type": "uint256"
        }
      ],
      "stateMutability": "view",
      "type": "function"
    },
    {
      "inputs": [],
      "name": "whitelistPrice",
      "outputs": [
        {
          "internalType": "uint256",
          "name": "",
          "type": "uint256"
        }
      ],
      "stateMutability": "view",
      "type": "function"
    },
    {
      "inputs": [],
      "name": "whitelistSupply",
      "outputs": [
        {
          "internalType": "uint256",
          "name": "",
          "type": "uint256"
        }
      ],
      "stateMutability": "view",
      "type": "function"
    },
    {
      "stateMutability": "payable",
      "type": "receive"
    }
  ],
  "bytecode": "0x610e1060105561012c60115566d529ae9e86000060125567013fbe85edc900006013556002601455601e60155560c0604052600a6080819052691553949155915053115160b21b60a09081526200005a9160169190620005cb565b50604051806060016040528060358152602001620040466035913980516200008b91601791602090910190620005cb565b506018805460ff60ff60a81b0119169055604080516020810190915273c4b5909c3f4c6da2fbeb9c73e9ca273f029ba8878152620000ce9060199060016200065a565b50604080516020810190915260648152620000ee90601a906001620006b2565b50348015620000fc57600080fd5b5060198054806020026020016040519081016040528092919081815260200182805480156200015557602002820191906000526020600020905b81546001600160a01b0316815260019091019060200180831162000136575b5050505050601a805480602002602001604051908101604052809291908181526020018280548015620001a857602002820191906000526020600020905b81548152602001906001019080831162000193575b5050604080518082018252600d81526c29b830b1b2a5b4b239a1b63ab160991b602080830191825283518085019094526003845262534b4360e81b908401528151919550919350620001ff925060029190620005cb565b50805162000215906003906020840190620005cb565b506000805550506008805460ff19169055620002313362000383565b8051825114620002a35760405162461bcd60e51b815260206004820152603260248201527f5061796d656e7453706c69747465723a2070617965657320616e6420736861726044820152710cae640d8cadccee8d040dad2e6dac2e8c6d60731b60648201526084015b60405180910390fd5b6000825111620002f65760405162461bcd60e51b815260206004820152601a60248201527f5061796d656e7453706c69747465723a206e6f2070617965657300000000000060448201526064016200029a565b60005b82518110156200037a57620003658382815181106200032857634e487b7160e01b600052603260045260246000fd5b60200260200101518383815181106200035157634e487b7160e01b600052603260045260246000fd5b6020026020010151620003dd60201b60201c565b80620003718162000764565b915050620002f9565b50505062000798565b600880546001600160a01b03838116610100818102610100600160a81b031985161790945560405193909204169182907f8be0079c531659141344cd1fd0a4f28419497f9722a3daafe3b4186f6b6457e090600090a35050565b6001600160a01b0382166200044a5760405162461bcd60e51b815260206004820152602c60248201527f5061796d656e7453706c69747465723a206163636f756e74206973207468652060448201526b7a65726f206164647265737360a01b60648201526084016200029a565b600081116200049c5760405162461bcd60e51b815260206004820152601d60248201527f5061796d656e7453706c69747465723a2073686172657320617265203000000060448201526064016200029a565b6001600160a01b0382166000908152600b602052604090205415620005185760405162461bcd60e51b815260206004820152602b60248201527f5061796d656e7453706c69747465723a206163636f756e7420616c726561647960448201526a206861732073686172657360a81b60648201526084016200029a565b600d8054600181019091557fd7b6990105719101dabeb77144f2a3385c8033acd3af97e9423a695e81ad1eb50180546001600160a01b0319166001600160a01b0384169081179091556000908152600b60205260409020819055600954620005829082906200070c565b600955604080516001600160a01b0384168152602081018390527f40c340f65e17194d14ddddb073d3c9f888e3cb52b5aae0c6c7706b4fbc905fac910160405180910390a15050565b828054620005d99062000727565b90600052602060002090601f016020900481019282620005fd576000855562000648565b82601f106200061857805160ff191683800117855562000648565b8280016001018555821562000648579182015b82811115620006485782518255916020019190600101906200062b565b5062000656929150620006f5565b5090565b82805482825590600052602060002090810192821562000648579160200282015b828111156200064857825182546001600160a01b0319166001600160a01b039091161782556020909201916001909101906200067b565b82805482825590600052602060002090810192821562000648579160200282015b8281111562000648578251829060ff16905591602001919060010190620006d3565b5b80821115620006565760008155600101620006f6565b6000821982111562000722576200072262000782565b500190565b600181811c908216806200073c57607f821691505b602082108114156200075e57634e487b7160e01b600052602260045260246000fd5b50919050565b60006000198214156200077b576200077b62000782565b5060010190565b634e487b7160e01b600052601160045260246000fd5b61389e80620007a86000396000f3fe6080604052600436106103595760003560e01c8063868ff4a2116101bb578063c976dcfa116100f7578063e7bb46e311610095578063f2fde38b1161006f578063f2fde38b146109e9578063f51f96dd14610a09578063fc1a1c3614610a1f578063fe2c7fee14610a3557600080fd5b8063e7bb46e31461096b578063e985e9c514610980578063edfd5ced146109c957600080fd5b8063d5abeb01116100d1578063d5abeb01146108f4578063d79779b21461090a578063ddd1783a14610940578063e33b7de31461095657600080fd5b8063c976dcfa14610888578063cbce4c971461089e578063ce7c2ac2146108be57600080fd5b80639e6a1d7d11610164578063b88d4fde1161013e578063b88d4fde14610813578063b95f8b5f14610833578063ba336c0914610853578063c87b56dd1461086857600080fd5b80639e6a1d7d146107be578063a22cb465146107de578063a475b5dd146107fe57600080fd5b80638da5cb5b116101955780638da5cb5b1461075057806395d89b41146107735780639852595c1461078857600080fd5b8063868ff4a21461070a5780638b83209b1461071d5780638ca887ca1461073d57600080fd5b8063406072a9116102955780636352211e116102335780637035bf181161020d5780637035bf18146106ab57806370a08231146106c0578063715018a6146106e05780638456cb59146106f557600080fd5b80636352211e146106565780636c0360eb146106765780636f8b44b01461068b57600080fd5b8063518302271161026f57806351830227146105e457806355a63bf4146105fe57806355f804b31461061e5780635c975abb1461063e57600080fd5b8063406072a91461055e57806342842e0e146105a457806348b75044146105c457600080fd5b8063191655871161030257806333e61413116102dc57806333e61413146104fe578063381b965c146105145780633a98ef39146105345780633f4ba83a1461054957600080fd5b80631916558714610490578063200d2ed2146104b057806323b872dd146104de57600080fd5b8063095ea7b311610333578063095ea7b314610436578063158756b91461045857806318160ddd1461046d57600080fd5b806301ffc9a7146103a757806306fdde03146103dc578063081812fc146103fe57600080fd5b366103a2577f6ef95f06320e7a25a04a175ca677b7052bdd97131872c2192525a629f51be77033604080516001600160a01b0390921682523460208301520160405180910390a1005b600080fd5b3480156103b357600080fd5b506103c76103c23660046134dc565b610a55565b60405190151581526020015b60405180910390f35b3480156103e857600080fd5b506103f1610af2565b6040516103d391906136c2565b34801561040a57600080fd5b5061041e61041936600461356c565b610b84565b6040516001600160a01b0390911681526020016103d3565b34801561044257600080fd5b50610456610451366004613495565b610be1565b005b34801561046457600080fd5b50610456610ca1565b34801561047957600080fd5b50600154600054035b6040519081526020016103d3565b34801561049c57600080fd5b506104566104ab366004613357565b610d35565b3480156104bc57600080fd5b506018546104d190600160a81b900460ff1681565b6040516103d39190613699565b3480156104ea57600080fd5b506104566104f93660046133ab565b610ee6565b34801561050a57600080fd5b5061048260115481565b34801561052057600080fd5b5061045661052f36600461356c565b610ef1565b34801561054057600080fd5b50600954610482565b34801561055557600080fd5b50610456610f44565b34801561056a57600080fd5b50610482610579366004613514565b6001600160a01b039182166000908152600f6020908152604080832093909416825291909152205490565b3480156105b057600080fd5b506104566105bf3660046133ab565b610f9c565b3480156105d057600080fd5b506104566105df366004613514565b610fb7565b3480156105f057600080fd5b506018546103c79060ff1681565b34801561060a57600080fd5b5061045661061936600461356c565b61123b565b34801561062a57600080fd5b50610456610639366004613526565b61128e565b34801561064a57600080fd5b5060085460ff166103c7565b34801561066257600080fd5b5061041e61067136600461356c565b6112f3565b34801561068257600080fd5b506103f1611305565b34801561069757600080fd5b506104566106a636600461356c565b611393565b3480156106b757600080fd5b506103f16113e6565b3480156106cc57600080fd5b506104826106db366004613357565b6113f3565b3480156106ec57600080fd5b5061045661145b565b34801561070157600080fd5b506104566114b3565b61045661071836600461356c565b611509565b34801561072957600080fd5b5061041e61073836600461356c565b6117ee565b61045661074b36600461356c565b61182c565b34801561075c57600080fd5b5060085461010090046001600160a01b031661041e565b34801561077f57600080fd5b506103f1611baa565b34801561079457600080fd5b506104826107a3366004613357565b6001600160a01b03166000908152600c602052604090205490565b3480156107ca57600080fd5b506104566107d936600461356c565b611bb9565b3480156107ea57600080fd5b506104566107f9366004613468565b611c0c565b34801561080a57600080fd5b50610456611cbb565b34801561081f57600080fd5b5061045661082e3660046133eb565b611d49565b34801561083f57600080fd5b5061045661084e36600461356c565b611d9a565b34801561085f57600080fd5b50610456611ded565b34801561087457600080fd5b506103f161088336600461356c565b611f3f565b34801561089457600080fd5b5061048260155481565b3480156108aa57600080fd5b506104566108b9366004613495565b61208e565b3480156108ca57600080fd5b506104826108d9366004613357565b6001600160a01b03166000908152600b602052604090205490565b34801561090057600080fd5b5061048260105481565b34801561091657600080fd5b50610482610925366004613357565b6001600160a01b03166000908152600e602052604090205490565b34801561094c57600080fd5b5061048260145481565b34801561096257600080fd5b50600a54610482565b34801561097757600080fd5b506104566120e6565b34801561098c57600080fd5b506103c761099b366004613373565b6001600160a01b03918216600090815260076020908152604080832093909416825291909152205460ff1690565b3480156109d557600080fd5b506104566109e436600461356c565b612249565b3480156109f557600080fd5b50610456610a04366004613357565b61229c565b348015610a1557600080fd5b5061048260135481565b348015610a2b57600080fd5b5061048260125481565b348015610a4157600080fd5b50610456610a50366004613526565b612372565b60006001600160e01b031982167f80ac58cd000000000000000000000000000000000000000000000000000000001480610ab857506001600160e01b031982167f5b5e139f00000000000000000000000000000000000000000000000000000000145b80610aec57507f01ffc9a7000000000000000000000000000000000000000000000000000000006001600160e01b03198316145b92915050565b606060028054610b0190613763565b80601f0160208091040260200160405190810160405280929190818152602001828054610b2d90613763565b8015610b7a5780601f10610b4f57610100808354040283529160200191610b7a565b820191906000526020600020905b815481529060010190602001808311610b5d57829003601f168201915b5050505050905090565b6000610b8f826123d3565b610bc5576040517fcf4700e400000000000000000000000000000000000000000000000000000000815260040160405180910390fd5b506000908152600660205260409020546001600160a01b031690565b6000610bec826112f3565b9050806001600160a01b0316836001600160a01b03161415610c3a576040517f943f7b8c00000000000000000000000000000000000000000000000000000000815260040160405180910390fd5b336001600160a01b03821614801590610c5a5750610c58813361099b565b155b15610c91576040517fcfb3b94200000000000000000000000000000000000000000000000000000000815260040160405180910390fd5b610c9c8383836123fe565b505050565b6008546001600160a01b03610100909104163314610cf45760405162461bcd60e51b8152602060048201819052602482015260008051602061384983398151915260448201526064015b60405180910390fd5b6018805460ff19169055604051600081527f311b8ddb573d97ab5a5590f8484e2573d2b1795203685605ba21e27cd69a3894906020015b60405180910390a1565b6001600160a01b0381166000908152600b6020526040902054610da95760405162461bcd60e51b815260206004820152602660248201527f5061796d656e7453706c69747465723a206163636f756e7420686173206e6f2060448201526573686172657360d01b6064820152608401610ceb565b6000610db4600a5490565b610dbe90476136d5565b90506000610deb8383610de6866001600160a01b03166000908152600c602052604090205490565b612472565b905080610e4e5760405162461bcd60e51b815260206004820152602b60248201527f5061796d656e7453706c69747465723a206163636f756e74206973206e6f742060448201526a191d59481c185e5b595b9d60aa1b6064820152608401610ceb565b6001600160a01b0383166000908152600c602052604081208054839290610e769084906136d5565b9250508190555080600a6000828254610e8f91906136d5565b90915550610e9f905083826124b8565b604080516001600160a01b0385168152602081018390527fdf20fd1e76bc69d672e4814fafb2c449bba3a5369d8359adf9e05e6fde87b056910160405180910390a1505050565b610c9c8383836125d1565b6008546001600160a01b03610100909104163314610f3f5760405162461bcd60e51b815260206004820181905260248201526000805160206138498339815191526044820152606401610ceb565b601455565b6008546001600160a01b03610100909104163314610f925760405162461bcd60e51b815260206004820181905260248201526000805160206138498339815191526044820152606401610ceb565b610f9a61280d565b565b610c9c83838360405180602001604052806000815250611d49565b6001600160a01b0381166000908152600b602052604090205461102b5760405162461bcd60e51b815260206004820152602660248201527f5061796d656e7453706c69747465723a206163636f756e7420686173206e6f2060448201526573686172657360d01b6064820152608401610ceb565b6001600160a01b0382166000908152600e60205260408120546040517f70a082310000000000000000000000000000000000000000000000000000000081523060048201526001600160a01b038516906370a082319060240160206040518083038186803b15801561109c57600080fd5b505afa1580156110b0573d6000803e3d6000fd5b505050506040513d601f19601f820116820180604052508101906110d49190613584565b6110de91906136d5565b905060006111178383610de687876001600160a01b039182166000908152600f6020908152604080832093909416825291909152205490565b90508061117a5760405162461bcd60e51b815260206004820152602b60248201527f5061796d656e7453706c69747465723a206163636f756e74206973206e6f742060448201526a191d59481c185e5b595b9d60aa1b6064820152608401610ceb565b6001600160a01b038085166000908152600f60209081526040808320938716835292905290812080548392906111b19084906136d5565b90915550506001600160a01b0384166000908152600e6020526040812080548392906111de9084906136d5565b909155506111ef90508484836128a4565b604080516001600160a01b038581168252602082018490528616917f3be5b7a71e84ed12875d241991c70855ac5817d847039e17a9d895c1ceb0f18a910160405180910390a250505050565b6008546001600160a01b036101009091041633146112895760405162461bcd60e51b815260206004820181905260248201526000805160206138498339815191526044820152606401610ceb565b601155565b6008546001600160a01b036101009091041633146112dc5760405162461bcd60e51b815260206004820181905260248201526000805160206138498339815191526044820152606401610ceb565b80516112ef906016906020840190613248565b5050565b60006112fe82612924565b5192915050565b6016805461131290613763565b80601f016020809104026020016040519081016040528092919081815260200182805461133e90613763565b801561138b5780601f106113605761010080835404028352916020019161138b565b820191906000526020600020905b81548152906001019060200180831161136e57829003601f168201915b505050505081565b6008546001600160a01b036101009091041633146113e15760405162461bcd60e51b815260206004820181905260248201526000805160206138498339815191526044820152606401610ceb565b601055565b6017805461131290613763565b60006001600160a01b038216611435576040517f8f4eb60400000000000000000000000000000000000000000000000000000000815260040160405180910390fd5b506001600160a01b031660009081526005602052604090205467ffffffffffffffff1690565b6008546001600160a01b036101009091041633146114a95760405162461bcd60e51b815260206004820181905260248201526000805160206138498339815191526044820152606401610ceb565b610f9a6000612a59565b6008546001600160a01b036101009091041633146115015760405162461bcd60e51b815260206004820181905260248201526000805160206138498339815191526044820152606401610ceb565b610f9a612aca565b60085460ff161561154f5760405162461bcd60e51b815260206004820152601060248201526f14185d5cd8589b194e881c185d5cd95960821b6044820152606401610ceb565b600061155e6001546000540390565b90506001601854600160a81b900460ff16600481111561158e57634e487b7160e01b600052602160045260246000fd5b146115db5760405162461bcd60e51b815260206004820181905260248201527f536f7272792c2073616c6520686173206e6f742073746172746564207965742e6044820152606401610ceb565b60145482111561162d5760405162461bcd60e51b815260206004820152601c60248201527f596f752063616e6e6f74206d696e74206d6f726520746f6b656e732e000000006044820152606401610ceb565b60145433600090815260056020526040902054839068010000000000000000900467ffffffffffffffff1661166291906136d5565b11156116b05760405162461bcd60e51b815260206004820152601c60248201527f596f752063616e6e6f74206d696e74206d6f726520746f6b656e732e000000006044820152606401610ceb565b816012546116be9190613701565b34101561170d5760405162461bcd60e51b815260206004820152601260248201527f496e737566666963656e742066756e64732e00000000000000000000000000006044820152606401610ceb565b60115461171a83836136d5565b111561178e5760405162461bcd60e51b815260206004820152603760248201527f53616c6520697320616c6d6f737420646f6e6520616e6420776520646f6e277460448201527f206861766520656e6f756768204e465473206c6566742e0000000000000000006064820152608401610ceb565b6117983383612b45565b336001600160a01b03167f4c209b5fc8ad50758f13e2e1088ba56a560dff690a1c6fef26394f4c03821c4f83846012546117d29190613701565b6040805192835260208301919091520160405180910390a25050565b6000600d828154811061181157634e487b7160e01b600052603260045260246000fd5b6000918252602090912001546001600160a01b031692915050565b60085460ff16156118725760405162461bcd60e51b815260206004820152601060248201526f14185d5cd8589b194e881c185d5cd95960821b6044820152606401610ceb565b60006118816001546000540390565b90506003601854600160a81b900460ff1660048111156118b157634e487b7160e01b600052602160045260246000fd5b14156118ff5760405162461bcd60e51b815260206004820152601460248201527f536f7272792c206e6f204e465473206c6566742e0000000000000000000000006044820152606401610ceb565b6002601854600160a81b900460ff16600481111561192d57634e487b7160e01b600052602160045260246000fd5b1461197a5760405162461bcd60e51b815260206004820181905260248201527f536f7272792c2073616c6520686173206e6f742073746172746564207965742e6044820152606401610ceb565b6015548211156119cc5760405162461bcd60e51b815260206004820152601c60248201527f596f752063616e6e6f74206d696e74206d6f726520746f6b656e732e000000006044820152606401610ceb565b60155433600090815260056020526040902054839068010000000000000000900467ffffffffffffffff16611a0191906136d5565b1115611a4f5760405162461bcd60e51b815260206004820152601c60248201527f596f752063616e6e6f74206d696e74206d6f726520746f6b656e732e000000006044820152606401610ceb565b81601354611a5d9190613701565b341015611aac5760405162461bcd60e51b815260206004820152601260248201527f496e737566666963656e742066756e64732e00000000000000000000000000006044820152606401610ceb565b601054611ab983836136d5565b1115611b2d5760405162461bcd60e51b815260206004820152603760248201527f53616c6520697320616c6d6f737420646f6e6520616e6420776520646f6e277460448201527f206861766520656e6f756768204e465473206c6566742e0000000000000000006064820152608401610ceb565b601054611b3a83836136d5565b1415611b66576018805460ff60a81b191675030000000000000000000000000000000000000000001790555b611b703383612b45565b336001600160a01b03167f4c209b5fc8ad50758f13e2e1088ba56a560dff690a1c6fef26394f4c03821c4f83846013546117d29190613701565b606060038054610b0190613763565b6008546001600160a01b03610100909104163314611c075760405162461bcd60e51b815260206004820181905260248201526000805160206138498339815191526044820152606401610ceb565b601555565b6001600160a01b038216331415611c4f576040517fb06307db00000000000000000000000000000000000000000000000000000000815260040160405180910390fd5b3360008181526007602090815260408083206001600160a01b03871680855290835292819020805460ff191686151590811790915590519081529192917f17307eab39ab6107e8899845ad3d59bd9653f200f220920489ca2b5937696c31910160405180910390a35050565b6008546001600160a01b03610100909104163314611d095760405162461bcd60e51b815260206004820181905260248201526000805160206138498339815191526044820152606401610ceb565b6018805460ff191660019081179091556040519081527f311b8ddb573d97ab5a5590f8484e2573d2b1795203685605ba21e27cd69a389490602001610d2b565b611d548484846125d1565b6001600160a01b0383163b15158015611d765750611d7484848484612b5f565b155b15611d94576040516368d2bf6b60e11b815260040160405180910390fd5b50505050565b6008546001600160a01b03610100909104163314611de85760405162461bcd60e51b815260206004820181905260248201526000805160206138498339815191526044820152606401610ceb565b601255565b6008546001600160a01b03610100909104163314611e3b5760405162461bcd60e51b815260206004820181905260248201526000805160206138498339815191526044820152606401610ceb565b6001601854600160a81b900460ff166004811115611e6957634e487b7160e01b600052602160045260246000fd5b14611edc5760405162461bcd60e51b815260206004820152603860248201527f54686520636f6c6c656374696f6e206973206e6f7420696e207468652072696760448201527f68742073746174757320746f207365742075702073616c6500000000000000006064820152608401610ceb565b6018805460ff60a81b1916750200000000000000000000000000000000000000000017908190556040517feadbfbf31058a12c180f3384935534d5073c83d5377c1a3fdd849afe203a082891610d2b91600191600160a81b900460ff16906136a7565b6060611f4a826123d3565b611f965760405162461bcd60e51b815260206004820152601760248201527f54686973204e465420646f65736e27742065786973742e0000000000000000006044820152606401610ceb565b60185460ff166120325760178054611fad90613763565b80601f0160208091040260200160405190810160405280929190818152602001828054611fd990613763565b80156120265780601f10611ffb57610100808354040283529160200191612026565b820191906000526020600020905b81548152906001019060200180831161200957829003601f168201915b50505050509050919050565b600061203c612c56565b9050600081511161205c5760405180602001604052806000815250612087565b8061206684612c65565b604051602001612077929190613606565b6040516020818303038152906040525b9392505050565b6008546001600160a01b036101009091041633146120dc5760405162461bcd60e51b815260206004820181905260248201526000805160206138498339815191526044820152606401610ceb565b6112ef8282612b45565b6008546001600160a01b036101009091041633146121345760405162461bcd60e51b815260206004820181905260248201526000805160206138498339815191526044820152606401610ceb565b6000601854600160a81b900460ff16600481111561216257634e487b7160e01b600052602160045260246000fd5b146121fb5760405162461bcd60e51b815260206004820152604260248201527f54686520636f6c6c656374696f6e206973206e6f7420696e207468652072696760448201527f68742073746174757320746f207365742075702077686974656c69737420736160648201527f6c65000000000000000000000000000000000000000000000000000000000000608482015260a401610ceb565b6018805460ff60a81b1916600160a81b908117918290556040517feadbfbf31058a12c180f3384935534d5073c83d5377c1a3fdd849afe203a082892610d2b92600092910460ff16906136a7565b6008546001600160a01b036101009091041633146122975760405162461bcd60e51b815260206004820181905260248201526000805160206138498339815191526044820152606401610ceb565b601355565b6008546001600160a01b036101009091041633146122ea5760405162461bcd60e51b815260206004820181905260248201526000805160206138498339815191526044820152606401610ceb565b6001600160a01b0381166123665760405162461bcd60e51b815260206004820152602660248201527f4f776e61626c653a206e6577206f776e657220697320746865207a65726f206160448201527f64647265737300000000000000000000000000000000000000000000000000006064820152608401610ceb565b61236f81612a59565b50565b6008546001600160a01b036101009091041633146123c05760405162461bcd60e51b815260206004820181905260248201526000805160206138498339815191526044820152606401610ceb565b80516112ef906017906020840190613248565b6000805482108015610aec575050600090815260046020526040902054600160e01b900460ff161590565b60008281526006602052604080822080547fffffffffffffffffffffffff0000000000000000000000000000000000000000166001600160a01b0387811691821790925591518593918516917f8c5be1e5ebec7d5bd14f71427d1e84f3dd0314c0f7b2291e5b200ac8c7c3b92591a4505050565b6009546001600160a01b0384166000908152600b60205260408120549091839161249c9086613701565b6124a691906136ed565b6124b09190613720565b949350505050565b804710156125085760405162461bcd60e51b815260206004820152601d60248201527f416464726573733a20696e73756666696369656e742062616c616e63650000006044820152606401610ceb565b6000826001600160a01b03168260405160006040518083038185875af1925050503d8060008114612555576040519150601f19603f3d011682016040523d82523d6000602084013e61255a565b606091505b5050905080610c9c5760405162461bcd60e51b815260206004820152603a60248201527f416464726573733a20756e61626c6520746f2073656e642076616c75652c207260448201527f6563697069656e74206d617920686176652072657665727465640000000000006064820152608401610ceb565b60006125dc82612924565b9050836001600160a01b031681600001516001600160a01b03161461262d576040517fa114810000000000000000000000000000000000000000000000000000000000815260040160405180910390fd5b6000336001600160a01b038616148061264b575061264b853361099b565b8061266657503361265b84610b84565b6001600160a01b0316145b90508061269f576040517f59c896be00000000000000000000000000000000000000000000000000000000815260040160405180910390fd5b6001600160a01b0384166126df576040517fea553b3400000000000000000000000000000000000000000000000000000000815260040160405180910390fd5b6126eb600084876123fe565b6001600160a01b038581166000908152600560209081526040808320805467ffffffffffffffff1980821667ffffffffffffffff92831660001901831617909255898616808652838620805493841693831660019081018416949094179055898652600490945282852080546001600160e01b031916909417600160a01b429092169190910217835587018084529220805491939091166127c15760005482146127c1578054602086015167ffffffffffffffff16600160a01b026001600160e01b03199091166001600160a01b038a16171781555b50505082846001600160a01b0316866001600160a01b03167fddf252ad1be2c89b69c2b068fc378daa952ba7f163c4a11628f55a4df523b3ef60405160405180910390a45b5050505050565b60085460ff1661285f5760405162461bcd60e51b815260206004820152601460248201527f5061757361626c653a206e6f74207061757365640000000000000000000000006044820152606401610ceb565b6008805460ff191690557f5db9ee0a495bf2e6ff9c91a7834c1ba4fdd244a5e8aa4e537bd38aeae4b073aa335b6040516001600160a01b039091168152602001610d2b565b604080516001600160a01b038416602482015260448082018490528251808303909101815260649091019091526020810180517bffffffffffffffffffffffffffffffffffffffffffffffffffffffff167fa9059cbb00000000000000000000000000000000000000000000000000000000179052610c9c908490612db3565b604080516060810182526000808252602082018190529181019190915281600054811015612a2757600081815260046020908152604091829020825160608101845290546001600160a01b0381168252600160a01b810467ffffffffffffffff1692820192909252600160e01b90910460ff16151591810182905290612a255780516001600160a01b0316156129bb579392505050565b5060001901600081815260046020908152604091829020825160608101845290546001600160a01b038116808352600160a01b820467ffffffffffffffff1693830193909352600160e01b900460ff1615159281019290925215612a20579392505050565b6129bb565b505b6040517fdf2d9b4200000000000000000000000000000000000000000000000000000000815260040160405180910390fd5b600880546001600160a01b038381166101008181027fffffffffffffffffffffff0000000000000000000000000000000000000000ff85161790945560405193909204169182907f8be0079c531659141344cd1fd0a4f28419497f9722a3daafe3b4186f6b6457e090600090a35050565b60085460ff1615612b105760405162461bcd60e51b815260206004820152601060248201526f14185d5cd8589b194e881c185d5cd95960821b6044820152606401610ceb565b6008805460ff191660011790557f62e78cea01bee320cd4e420270b5ea74000d11b0c9f74754ebdbfc544b05a25861288c3390565b6112ef828260405180602001604052806000815250612e98565b604051630a85bd0160e11b81526000906001600160a01b0385169063150b7a0290612b9490339089908890889060040161365d565b602060405180830381600087803b158015612bae57600080fd5b505af1925050508015612bde575060408051601f3d908101601f19168201909252612bdb918101906134f8565b60015b612c39573d808015612c0c576040519150601f19603f3d011682016040523d82523d6000602084013e612c11565b606091505b508051612c31576040516368d2bf6b60e11b815260040160405180910390fd5b805181602001fd5b6001600160e01b031916630a85bd0160e11b149050949350505050565b606060168054610b0190613763565b606081612ca557505060408051808201909152600181527f3000000000000000000000000000000000000000000000000000000000000000602082015290565b8160005b8115612ccf5780612cb98161379e565b9150612cc89050600a836136ed565b9150612ca9565b60008167ffffffffffffffff811115612cf857634e487b7160e01b600052604160045260246000fd5b6040519080825280601f01601f191660200182016040528015612d22576020820181803683370190505b5090505b84156124b057612d37600183613720565b9150612d44600a866137b9565b612d4f9060306136d5565b60f81b818381518110612d7257634e487b7160e01b600052603260045260246000fd5b60200101907effffffffffffffffffffffffffffffffffffffffffffffffffffffffffffff1916908160001a905350612dac600a866136ed565b9450612d26565b6000612e08826040518060400160405280602081526020017f5361666545524332303a206c6f772d6c6576656c2063616c6c206661696c6564815250856001600160a01b0316612ea59092919063ffffffff16565b805190915015610c9c5780806020019051810190612e2691906134c0565b610c9c5760405162461bcd60e51b815260206004820152602a60248201527f5361666545524332303a204552433230206f7065726174696f6e20646964206e60448201527f6f742073756363656564000000000000000000000000000000000000000000006064820152608401610ceb565b610c9c8383836001612eb4565b60606124b084846000856130c7565b6000546001600160a01b038516612ef7576040517f2e07630000000000000000000000000000000000000000000000000000000000815260040160405180910390fd5b83612f2e576040517fb562e8dd00000000000000000000000000000000000000000000000000000000815260040160405180910390fd5b6001600160a01b038516600081815260056020908152604080832080547fffffffffffffffffffffffffffffffff00000000000000000000000000000000811667ffffffffffffffff8083168c0181169182176801000000000000000067ffffffffffffffff1990941690921783900481168c01811690920217909155858452600490925290912080546001600160e01b031916909217600160a01b429092169190910217905580808501838015612fef57506001600160a01b0387163b15155b15613078575b60405182906001600160a01b038916906000907fddf252ad1be2c89b69c2b068fc378daa952ba7f163c4a11628f55a4df523b3ef908290a46130406000888480600101955088612b5f565b61305d576040516368d2bf6b60e11b815260040160405180910390fd5b80821415612ff557826000541461307357600080fd5b6130be565b5b6040516001830192906001600160a01b038916906000907fddf252ad1be2c89b69c2b068fc378daa952ba7f163c4a11628f55a4df523b3ef908290a480821415613079575b50600055612806565b60608247101561313f5760405162461bcd60e51b815260206004820152602660248201527f416464726573733a20696e73756666696369656e742062616c616e636520666f60448201527f722063616c6c00000000000000000000000000000000000000000000000000006064820152608401610ceb565b6001600160a01b0385163b6131965760405162461bcd60e51b815260206004820152601d60248201527f416464726573733a2063616c6c20746f206e6f6e2d636f6e74726163740000006044820152606401610ceb565b600080866001600160a01b031685876040516131b291906135ea565b60006040518083038185875af1925050503d80600081146131ef576040519150601f19603f3d011682016040523d82523d6000602084013e6131f4565b606091505b509150915061320482828661320f565b979650505050505050565b6060831561321e575081612087565b82511561322e5782518084602001fd5b8160405162461bcd60e51b8152600401610ceb91906136c2565b82805461325490613763565b90600052602060002090601f01602090048101928261327657600085556132bc565b82601f1061328f57805160ff19168380011785556132bc565b828001600101855582156132bc579182015b828111156132bc5782518255916020019190600101906132a1565b506132c89291506132cc565b5090565b5b808211156132c857600081556001016132cd565b600067ffffffffffffffff808411156132fc576132fc6137f9565b604051601f8501601f19908116603f01168101908282118183101715613324576133246137f9565b8160405280935085815286868601111561333d57600080fd5b858560208301376000602087830101525050509392505050565b600060208284031215613368578081fd5b81356120878161380f565b60008060408385031215613385578081fd5b82356133908161380f565b915060208301356133a08161380f565b809150509250929050565b6000806000606084860312156133bf578081fd5b83356133ca8161380f565b925060208401356133da8161380f565b929592945050506040919091013590565b60008060008060808587031215613400578081fd5b843561340b8161380f565b9350602085013561341b8161380f565b925060408501359150606085013567ffffffffffffffff81111561343d578182fd5b8501601f8101871361344d578182fd5b61345c878235602084016132e1565b91505092959194509250565b6000806040838503121561347a578182fd5b82356134858161380f565b915060208301356133a081613824565b600080604083850312156134a7578182fd5b82356134b28161380f565b946020939093013593505050565b6000602082840312156134d1578081fd5b815161208781613824565b6000602082840312156134ed578081fd5b813561208781613832565b600060208284031215613509578081fd5b815161208781613832565b60008060408385031215613385578182fd5b600060208284031215613537578081fd5b813567ffffffffffffffff81111561354d578182fd5b8201601f8101841361355d578182fd5b6124b0848235602084016132e1565b60006020828403121561357d578081fd5b5035919050565b600060208284031215613595578081fd5b5051919050565b600081518084526135b4816020860160208601613737565b601f01601f19169290920160200192915050565b600581106135e657634e487b7160e01b600052602160045260246000fd5b9052565b600082516135fc818460208701613737565b9190910192915050565b60008351613618818460208801613737565b83519083019061362c818360208801613737565b7f2e6a736f6e0000000000000000000000000000000000000000000000000000009101908152600501949350505050565b60006001600160a01b0380871683528086166020840152508360408301526080606083015261368f608083018461359c565b9695505050505050565b60208101610aec82846135c8565b604081016136b582856135c8565b61208760208301846135c8565b602081526000612087602083018461359c565b600082198211156136e8576136e86137cd565b500190565b6000826136fc576136fc6137e3565b500490565b600081600019048311821515161561371b5761371b6137cd565b500290565b600082821015613732576137326137cd565b500390565b60005b8381101561375257818101518382015260200161373a565b83811115611d945750506000910152565b600181811c9082168061377757607f821691505b6020821081141561379857634e487b7160e01b600052602260045260246000fd5b50919050565b60006000198214156137b2576137b26137cd565b5060010190565b6000826137c8576137c86137e3565b500690565b634e487b7160e01b600052601160045260246000fd5b634e487b7160e01b600052601260045260246000fd5b634e487b7160e01b600052604160045260246000fd5b6001600160a01b038116811461236f57600080fd5b801515811461236f57600080fd5b6001600160e01b03198116811461236f57600080fdfe4f776e61626c653a2063616c6c6572206973206e6f7420746865206f776e6572a264697066735822122062a70a4e9f7b6a493c95eee51001d3e2595d2c0dc5988a61eb732f16d3348c9b64736f6c63430008040033697066733a2f2f516d527a34414a6d4d7078393273747758344779423437354a54445272444c63595634423979617937734c734c50",
  "linkReferences": {},
  "deployedLinkReferences": {}
}